:02000002B0004C
:1040000000400B0098610B00000006001A0005023A
:084010000401810C0000000016
:04401800345E0B0007
:10401C0009480A49884208B505D0094A824202D0AB
:10402C00121A01F030FE0748074A0021121A01F05B
:10403C0038FE014808BD00BFF4E5032004610B0005
:10404C0060E6032060E60320EDE7032070B5074E21
:10405C00074C00F0AFFFA41BA4080025AC4200D114
:10406C0070BD56F8043B98470135F7E7D4600B0058
:10407C0000610B0000F016B808B500F071F9BDE84E
:10408C00084000F04FBF00F0F5BD00F0F3BD00F0AC
:10409C00F9BD0078B0FA80F0400970470123037035
:1040AC00704700001FB5124B124A1B788DF8003078
:1040BC0011493C2302A801F0DBF8039C7CB1636836
:1040CC00013B63605BB9236820469B689847A368F3
:1040DC00013BA3601BB923682046DB68984707485F
:1040EC0000F0ADF9054804B0BDE8104000F0E0B9AF
:1040FC006CE60320485E0B005B5E0B0070E6032051
:10410C0073B50024144D2646A1B200960023FF225D
:10411C002846013400F078FB182CF5D10E480E4DD2
:10412C0000F0C6F94FF4FA7000F0D0FE00242646D9
:10413C000023A1B200961A462846013400F064FB15
:10414C00182CF5D1044800F0B3F94FF4FA7002B012
:10415C00BDE8704000F0BABE70E6032073B50024D1
:10416C002F4D2646A1B20023FF222846009600F0D0
:10417C004BFB142000F0AAFE0134284600F098F9FD
:10418C00182CEFD1264D0024FF260023A1B21A468D
:10419C002846009600F038FB142000F097FE0134FE
:1041AC00284600F085F9182CEFD100241C4D26462A
:1041BC00A1B2FF2300222846009600F025FB142014
:1041CC0000F084FE0134284600F072F9182CEFD16F
:1041DC000024134D2646FF23A1B21A46284600960A
:1041EC0000F012FB142000F071FE0134284600F0A0
:1041FC005FF9182CEFD10024094D26460023A1B2FB
:10420C001A462846009600F0FFFA142000F05EFED5
:10421C000134284600F04CF9182CEFD102B070BDD7
:10422C0070E603202DE9F3470024DFF8B080064642
:10423C0027464FEAC00A6423BAFBF3FA04EB4405A1
:10424C00A245ADB24FF0000939DB182E16D805EB9C
:10425C00090100970023FF2289B2404609F10109A8
:10426C0000F0D2FAB9F1030FF1D10134082CE5D1E9
:10427C001A4802B0BDE8F04700F01AB9312E0ED83A
:10428C0005EB090100977F23FF2289B2404609F113
:10429C00010900F0B9FAB9F1030FF1D1E5E705EB2B
:1042AC000901CDE90077FF23002289B2404609F1CC
:1042BC00010900F0D6FAB9F1030FF0D1D5E705EBFF
:1042CC000901002300971A4689B2404609F10109F9
:1042DC0000F09AFAB9F1030FF1D1C6E770E60320AA
:1042EC0010B50446FFF79EFFFA2000F0EFFD04F135
:1042FC000C00C0B2FFF796FFBDE81040FA2000F0AA
:10430C00E5BD000073B50024144D2646A1B20096FD
:10431C00642300222846013400F076FA182CF5D1DB
:10432C000E480E4D00F0C4F84FF4FA7000F0CEFDBC
:10433C0000242646A1B20096FA2300222846013416
:10434C0000F062FA182CF5D1044800F0B1F84FF4E3
:10435C00FA7002B0BDE8704000F0B8BD70E6032002
:10436C0010B5FFF7FBFE4FF47A7000F0AFFD64243C
:10437C002046043CFFF756FFE4B2FA2000F0A6FDFD
:10438C00FC2CF5D1FFF7BCFEFFF7BAFEFFF7B8FE29
:10439C00FFF7B6FEFFF7B4FEFFF7B2FE0024E4B25F
:1043AC0020460434FFF79CFFE3B2682B64B2F6D1CD
:1043BC00FFF7A8FFFFF7A6FFFFF7A4FFFFF7A2FF89
:1043CC00FFF7A0FFBDE81040FFF79CBF0A4B10B5EC
:1043DC0000221A70094BC3E90022A2F580329A60C0
:1043EC00012000F09BFBBDE810400548022303228E
:1043FC00182100F04BB800BF6CE6032060E60320E8
:10440C0070E6032038B50446C0680D4608B100F0CC
:10441C0039FCA379062B0CBF0420032010FB05F0FC
:10442C0080B2A08000F026FCE06028B1A2880021B8
:10443C0001F037FC658038BDA0806080FBE710B5CB
:10444C0004460121C07901F067FBE079002101F0FD
:10445C0074FB0123237010BD37B5037805460C4659
:10446C001BB1C079002101F057FB2B78EC715BB1CB
:10447C00A0B20121019001F04FFB0198002103B083
:10448C00BDE8304001F059BB03B030BD70B500251C
:10449C00044616468371C0E9035505700572FFF793
:1044AC00B1FF20463146FFF7D7FF204670BD000014
:1044BC00C368002B00F0A4812DE9F04F8379023BF7
:1044CC00DBB2042B9CBFBF4A52F8234085B0054693
:1044DC0088BF322400F04AFA2B69C01AA042F9D3E3
:1044EC00B94CAE88D4F800351BB9D4F86035002B24
:1044FC007EDBB64CD4F8003523B9D4F86035002BEC
:10450C00C0F26E81B24CD4F80035002B00F044811F
:10451C00EB79B04AB04C1268190102EB0313575CEB
:10452C00AE495B78D1F8FC2042F08072C1F8FC20D7
:10453C00226803F01F0343EA471301273A43226022
:10454C00A988D5F80C80D4F804909F40002944D059
:10455C004FF0000E72464FF0A04118F801CB082026
:10456C00802663689B1A462BFBD96268D1F8083504
:10457C001CEA060F43EA0703C1F808352FD063681D
:10458C009B1A282BFBD9D1F80C35013843EA0703C9
:10459C004FEA5606C1F80C35E3D1AB880EF1010E8B
:1045AC001FFA8EFE7345D8D84FF4307103FB01F11E
:1045BC0063689B1A462BFBD96368A3EB09098945F1
:1045CC00C0F0E4804FF4967000F0C8F9A988D5F8D3
:1045DC000C80D4F804900029BAD10A46E8E7636845
:1045EC009B1A112BCFD863689B1A112BF7D9CAE7EA
:1045FC00D4F86435002BBFF67CAFD4F86835002BAB
:10460C00BFF677AFD4F86C35002BBFF672AF36011E
:10461C00331D1846009300F02DFB00283FF478AFB3
:10462C00AB88002B00F0ED80EA68013B12FA83F7AF
:10463C0002F1FF3E002348F2060248F20D011EF87B
:10464C0001CF1CF0800F0CBF93468B461CF0400F23
:10465C000CBF16460E461CF0200F0CBF9046884629
:10466C0003F10109CDF80880019603F102081FFA45
:10467C0089F9019E20F813B01FFA88F820F8196008
:10468C00029E20F8186003F103081CF0100F1FFAAB
:10469C0088F80CBF93468B4620F818B003F1040839
:1046AC001CF0080F1FFA88F80CBF93468B4620F8B5
:1046BC0018B003F105081CF0040F1FFA88F80CBFA2
:1046CC0093468B4620F818B003F1080A03F106084C
:1046DC0007339BB21CF0020F1FFA88F80CBF9346ED
:1046EC008B46CDF80CA01CF0010F20F818B015BFAC
:1046FC0020F8131020F813201FFA8AF3BDF80C30A1
:10470C0077459CD1591C023389B29BB249005B009E
:10471C004FF400474752009AC7522E4B56081F6859
:10472C0000221423C4F80425C4F80C25C4F8083559
:10473C00C4F81425C4F81025C4F82005C4F8246561
:10474C00C4F82825C4F82C25EB7907EB031C1B01B6
:10475C000121FE5C9CF8013003F01F0343EA461371
:10476C00C4F86035C4F80015C4F81021A160D4F861
:10477C001031002BFBD000234FF0FF32C4F8103166
:10478C00C4F80035C4F8602500F07CFA00F0EEF8AF
:10479C00286105B0BDE8F08FD4F86035002BBFF66A
:1047AC00B7AED4F86435002BBFF6B2AED4F868358A
:1047BC00002BBFF6ADAED4F86C35002BBFF6A8AE0F
:1047CC0025E700BF605E0B0000C0014000100240F6
:1047DC000020024084E60320001000E000ED00E021
:1047EC00D4F86435002BBFF68DAED4F86835002BA9
:1047FC00BFF688AED4F86C35002BBFF683AE06E757
:10480C0070470423022183E770B544889DF810504B
:10481C008C4222D9047A44B112FB04F214FB03F348
:10482C0014FB05F4120A1B0A250AC668807901EBF1
:10483C00410102387418062810D8DFE800F0040F84
:10484C0008040F04040073546270A57005E0FE2A7E
:10485C0028BFFE2272546570A37070BD72546370D1
:10486C00F3E7F0B5064640889DF814409DF818C053
:10487C00884229D9357A65B112FB05F215FB03F391
:10488C0015FB04F415FB0CF5120A1B0A240A4FEA5B
:10489C00152CF768B679062E0CBF0420032048436C
:1048AC00023E3918062E16D8DFE806F00415080467
:1048BC000F0404003B544A708C7005E0FE2A28BF9C
:1048CC00FE223A544C708B70F0BD3A544B708C7085
:1048DC0081F803C0F8E73A544B70EDE708B500F0E7
:1048EC0015F8014B186008BD84E6032008B5024B8F
:1048FC001B689B68019308BD6802030008B5024B56
:10490C001B68DB68019308BD6802030008B5024B05
:10491C001B681B68019308BD2C02030008B5024BF1
:10492C001B689B68019308BD2C02030008B5024B61
:10493C001B68DB68019308BD2C02030008B5024B11
:10494C001B681B69019308BD2C02030008B5024BC0
:10495C001B685B68019308BD1802030008B5024B85
:10496C001B68DB68019308BD1802030008B5024BF5
:10497C001B681B69019308BD1802030008B5024BA4
:10498C001B685B69019308BD1802030008B5024B54
:10499C001B685B6C019308BD4802030008B5024B11
:1049AC001B685B69019308BD6402030008B5024BE8
:1049BC001B68DB68019308BD3C02030008B5024B81
:1049CC001B681B69019308BD3C02030008B5024B30
:1049DC001B685B69019308BD3C02030008B5024BE0
:1049EC001B689B69019308BD3C02030008B5024B90
:1049FC001B68DB69019308BD3C02030008B5024B40
:104A0C001B681B6A019308BD3C02030008B5024BEE
:104A1C001B689B6A019308BD3C02030008B5024B5E
:104A2C001B681B6C019308BD3C02030008B5024BCC
:104A3C001B681B6A019308BD2802030008B5024BD2
:104A4C001B685B6A019308BD2802030008B5024B82
:104A5C001B689B6A019308BD2802030008B5024B32
:104A6C001B68DB6A019308BD2802030008B5024BE2
:104A7C001B681B6B019308BD2802030008B5024B91
:104A8C001B685B6B019308BD2802030008B5024B41
:104A9C001B681B6C019308BD2802030008B5024B70
:104AAC001B68DB69019308BD3002030008B5024B9B
:104ABC001B681B6A019308BD3002030008B5024B4A
:104ACC001B681B68019308BD4C02030008B5024B20
:104ADC001B681B69019308BD4C02030008B5024B0F
:104AEC001B685B69019308BD4C02030008B5024BBF
:104AFC001B689B69019308BD4C02030008B5024B6F
:104B0C001B68DB69019308BD4C02030008B5024B1E
:104B1C001B681B6A019308BD4C02030008B5024BCD
:104B2C001B685B68019308BD2002030008B5024BAB
:104B3C001B685B69019308BD2002030008B5024B9A
:104B4C001B68DB6C019308BD2002030008B5024B07
:104B5C001B685B6D019308BD2002030008B5034B75
:104B6C001B68D3F88830019308BD000020020300B5
:104B7C0008B5034B1B68D3F89430019308BD0000B3
:104B8C002002030008B5024B1B685B68019308BD4B
:104B9C004002030008B5024B1B689B68019308BDDB
:104BAC004002030008B5024B1B68DB68019308BD8B
:104BBC004002030008B5024B1B681B69019308BD3A
:104BCC004002030008B5024B1B685B69019308BDEA
:104BDC004002030008B5024B1B689B69019308BD9A
:104BEC004002030008B5024B1B68DB69019308BD4A
:104BFC004002030008B5024B1B681B6A019308BDF9
:104C0C004002030008B5024B1B681B6B019308BDE7
:104C1C004002030008B5024B1B685B6B019308BD97
:104C2C004002030008B5024B1B681B6C019308BDC6
:104C3C004002030008B5024B1B685B6C019308BD76
:104C4C004002030008B5024B1B685B69019308BD69
:104C5C004402030008B5024B1B681B6A019308BD94
:104C6C004402030008B5024B1B68DB6B019308BDC3
:104C7C004402030008B5024B1B681B68019308BD76
:104C8C001C02030008B5024B1B685B68019308BD4E
:104C9C001C02030008B5024B1B68DB6A019308BDBC
:104CAC001C02030008B5024B1B681B6B019308BD6B
:104CBC001C02030008B5024B1B681B6C019308BD5A
:104CCC001C02030008B5024B1B685B6C019308BD0A
:104CDC001C020300002240681146FFF78BBF002224
:104CEC0040681146FFF796BF40680022FFF78ABF65
:104CFC004068002281F00101FFF774BF0023406877
:104D0C001A461946FFF766BF002340681A46194633
:104D1C00FFF758BF002240681146FFF74BBF002237
:104D2C0040681146FFF736BF406800220221FFF7AA
:104D3C0039BF002340681A46FFF724BF024B0322F9
:104D4C005A60024A1A60704788E603207C5E0B00AA
:104D5C0010B5044608462170FFF7A0FE00236360DF
:104D6C00204610BD054B02221A60054B054A9A607D
:104D7C000020C3E90000FFF7D1BE00BF9CE6032072
:104D8C0090E603200000FFFF10B58368044613B1C2
:104D9C00032201469847204610BD10B54368013BDD
:104DAC000446436063B903689B689847A368013B5A
:104DBC00A3602BB923682046DB68BDE81040184778
:104DCC0010BD10B50446006808B1FFF7E6FF204699
:104DDC0010BD13B50B460246D0E900016C4684E8C1
:104DEC00030093E8030082E8030094E8030083E8DF
:104DFC00030002B010BD0000024800230360FFF75F
:104E0C00C5BD00BFA0E60320F8B506460D468F18B9
:104E1C000024BD420CD0336815F8011B9B6830464A
:104E2C009847031E01DB1C44F3E7002C08BF1C460B
:104E3C002046F8BD13B50446084659B1019100F05F
:104E4C0084FF23680199DB680246204602B0BDE866
:104E5C001040184702B010BD03689B68184730B566
:104E6C008BB00023012A8DF8243098BF0A2209AC9C
:104E7C000D46B1FBF2F101FB125303F0FF03092BBA
:104E8C0094BF30333733DBB2AA4204F8013DEFD97B
:104E9C002146FFF7CFFF0BB030BD002340681A4608
:104EAC001946FFF78FBE0000014B024A1A6070478B
:104EBC00A4E60320B05E0B00024B1A68024B1A608A
:104ECC00704700BFF4E50320A8E603200021FFF79C
:104EDC002DBE0000014B00229A607047ACE6032007
:104EEC00014B1860704700BFF8E5032008B50B4B69
:104EFC0043B100F0FBFB03681B699847002801DDF8
:104F0C00AFF30080064B43B100F04CFE03681B6905
:104F1C009847002801DDAFF3008008BD00000000B9
:104F2C000000000008B5FFF7E1FFFFF727FD014B7C
:104F3C00186008BD40E703200548064A064908B535
:104F4C00121A00F0A0FE054B054A1A6008BD00BFFE
:104F5C0000F4032004F4032000610B0000F4032090
:104F6C001E1C279A07B5002300931A466FF0770191
:104F7C00FFF7FEFD03B05DF804FB000007B54388A6
:104F8C000A2B08D0502B0BD1094B1B684BB103B02B
:104F9C005DF804EB1847FFF7E5FF03B05DF804FB81
:104FAC00002300931A466FF07701FFF7E1FDF4E759
:104FBC00C0E6032010B512480021FFF783FE114B09
:104FCC001A68114B9A42114B0CBF012200221A7025
:104FDC0001D0FFF7B1FFFFF7B9FC044600F06AFE01
:104FEC000B4B13B12046AFF3008000210848FFF7AC
:104FFC0039FEBDE8104007480021FFF7AFBD00BFE8
:10500C00ED4E0B0000F403201E1C279ABCE6032077
:10501C0000000000894F0B0070470020704710B54E
:10502C0010210446FFF733F8204610BD08B5FFF7F2
:10503C00F6FF08BD30B500224FF69C7402608480E8
:10504C008D888C800C68858004600A6030BD10B53A
:10505C0004460068FFF716FE204610BD38B5C4683C
:10506C00F4B12378022B03D104F10C00FFF7EFFF0E
:10507C00656835B12846FFF787FE10212846FFF7F3
:10508C0006F8A56835B12846FFF77EFE10212846A4
:10509C00FEF7FDFF20461421BDE83840FEF7F7BFB0
:1050AC0038BD0B6803604B68436013B15A6801321A
:1050BC005A60704737B5044668460D46FFF7F1FF56
:1050CC00009B019A23606260002301A80193009366
:1050DC00FFF777FE35B1281DFFF773FE0821284630
:1050EC00FEF7D5FF204603B030BD826810B50AB973
:1050FC0000F0C0FDBDE81040C368184708B5006853
:10510C0000F11001FFF7F1FF08BD826810B50AB974
:10511C0000F0B0FDBDE81040C368184708B5006842
:10512C0000F11001FFF7F1FF08BD000038B50023B6
:10513C000446036010200D46FEF7A5FF28B101239D
:10514C00C0E90133024B0360C5602060204638BDC6
:10515C00D85E0B0038B5002383608B6804460D467F
:10516C002BB102229847EB68E360AB68A360204642
:10517C0038BD0000F0B589B004686846FFF75AFFE7
:10518C004FF00203D4E84F2F002A03D1C4E8413F6B
:10519C000029F7D125D104F10C0569462846FFF703
:1051AC0049FFBFF35B8F01236370002004F10803F8
:1051BC00BFF35B8F53E8006F43E80002002AF9D17C
:1051CC00BFF35B8F6EB1FFF7B9FC78B1294630465F
:1051DC00FFF78BFF3046FFF7D7FD10213046FEF767
:1051EC0056FF6846FFF733FF09B0F0BD314602A801
:1051FC00FFF7B0FFE068B4F9105008B100F088FD7B
:10520C0006901020ADF81C50FEF73DFF0546E8B1A6
:10521C00002787601820FEF736FF044688B1014648
:10522C00876002A8FFF7D5FD049BA268A360059BCD
:10523C00049206A9E268E36004F110000592FFF7FE
:10524C00F9FE084BEB60084B2C60AB6006A8FFF72F
:10525C00FEFE02A8FFF798FD002229460348FFF73F
:10526C0075FCB7E709510B008D530B0081580B00EF
:10527C002DE9F04F8BB005469DF850A00F46904697
:10528C009946FFF7DFFC07AE834638BB4FF62E730B
:10529C00059005A93046ADF81830FFF7CBFE142069
:1052AC00FEF7F1FE044648B1022303700123C0E966
:1052BC0001BB437031460C30FFF7BCFE284621463B
:1052CC0040F8044BFFF732FF3046FFF7C0FE05A84D
:1052DC00FFF7BDFE28460BB0BDE8F08F0C23002471
:1052EC001420CDE908440793FEF7CDFE014618B112
:1052FC00C0E901440470447004A80391FFF716FF41
:10530C001E4B08930820FEF7BEFE044610B103A9FD
:10531C00FFF7C7FE00965FFA8AF34A4641463846C5
:10532C000994FFF797FCB8B9039B5B7803F0FF0275
:10533C0093B94FF69C7305A903A80592ADF81830E4
:10534C00FFF718FF05A8FFF782FE05A80999FFF7DC
:10535C00B1FE06A8FFF735FD03A905A8FFF7A1FECE
:10536C00059B069A2B606A60002306A8069305939A
:10537C00FFF727FD04A8FFF724FDABE709540B004A
:10538C00012AF8B5054603D10B6803600020F8BD6F
:10539C00022A10D0032AF9D10468002CF6D004F1AB
:1053AC001000FFF754FE2046FFF7EEFC18212046B4
:1053BC00FEF76DFEEAE718200E68FEF764FE044661
:1053CC0050B13146FFF7C6FE3069B6F9147008B11A
:1053DC0000F09EFC2061A7822C60D7E738B5002333
:1053EC0083608B6804460D462BB102229847EB680C
:1053FC00E360AB68A360204638BD0000F0B589B00F
:10540C0004460D4601A81146FFF754FEA4B124B280
:10541C001DB1284600F07CFC054601A803A90395A4
:10542C00ADF81040FFF7A6FE03A8FFF710FE02A888
:10543C00FFF7C7FC09B0F0BD019D0123D5E84F2F44
:10544C00002A03D1C5E8413F0029F7D1EFD12B73D6
:10545C00BFF35B8F6B702B1DBFF35B8F53E8006F3B
:10546C0043E80042002AF9D1BFF35B8F002EDED057
:10547C002046FFF763FB074660B105F10C0130468F
:10548C00FFF743FE3046FFF77FFC10213046FEF756
:10549C00FEFDCCE7314603A8FFF7A0FF2B7B8DF870
:1054AC001C301020FEF7EFFD0546D0B187601420AC
:1054BC00FEF7E9FD044678B18760014603A8FFF7C3
:1054CC0088FC059BA268A360069B0592E268E360DA
:1054DC009DF81C3006922374064BEB60064B2C6037
:1054EC00AB6003A8FFF750FC002229460348FFF7E6
:1054FC002DFBC7E729510B000D550B0081580B00F4
:10550C00012A70B5044603D10B680360002070BDFE
:10551C00022A0CD0032AF9D10468002CF6D02046BC
:10552C00FFF732FC14212046FEF7B1FDEEE7142004
:10553C000E68FEF7A8FD054620B13146FFF74EFF79
:10554C00337C2B742560E1E7704710B518210446B5
:10555C00FEF79DFD204610BDF0B5037D062B8DB0EA
:10556C000E4600F104074FF0000412D000F10805BC
:10557C0015F8011D0A223046FFF771FCAF420444B6
:10558C0019D0002CF4D02E213046FFF765FC0444D2
:10559C00EEE72F236A4639460A208DF80040FFF7C4
:1055AC00FDF9684600F0D1FB33680246DB686946BA
:1055BC0030469847044620460DB0F0BD10B5054B5B
:1055CC000446112240F8043B002100F06AFB2046FF
:1055DC0010BD00BFF45E0B000346074A10B543F83C
:1055EC00042B01F1100251F8044B43F8044B914287
:1055FC00F9D10A781A7010BDF45E0B0010B59DF845
:10560C00084044EA032343EA024242EA01610423CC
:10561C004160037510BD000007B5064B0360CB78E5
:10562C0000938B784A780978FFF7E8FF03B05DF8B0
:10563C0004FB00BFF45E0B00417470477047704769
:10564C0008B50021007CFFF751FA40EAE07008BD74
:10565C0008B50121007CFFF749FA40EAE07008BD6B
:10566C0008B5007CFFF73AFA20EAE07008BD08B5EF
:10567C00007CFFF72BFA20EAE07008BD13B5044656
:10568C00007C0191FFF72AFA0028019901DC607C6B
:10569C0020B1207CFFF732FA20EAE07002B010BD96
:1056AC00007CFFF733BA10B514210446FEF7EFFC6B
:1056BC00204610BD10B54FF47A73044608460021FD
:1056CC00C4E90113044B2360012320746374114655
:1056DC00FFF7F4F9204610BD085F0B0010B514223B
:1056EC000446002100F0DDFA204610BD10B50F4C29
:1056FC0088B003A8FFF7F2FF2178BFF35B8F11F09E
:10570C0001010FD120460191FEF7C3FC019948B16C
:10571C0003AA0748FFF7CEFF2046FEF7BFFC05485B
:10572C0000F0ABFA024808B010BD00BFC4E603207D
:10573C00C8E6032049560B00002240681146FFF7CB
:10574C0039BA002240681146FFF754BA002240686B
:10575C001146FFF75FBA40680022FFF753BA406862
:10576C00002281F00101FFF73DBA002340681A4680
:10577C001946FFF72FBA002340681A461946FFF75F
:10578C0021BA002240681146FFF704BA4068002293
:10579C000221FFF707BA002340681A46FFF7F2B957
:1057AC00084B10B5282422461846002100F079FA3F
:1057BC00054B04804FF0FF32426004225A60034ACA
:1057CC001A6010BDE4E60320DCE60320385F0B0012
:1057DC0070474174704708B5007CFFF717F920EA51
:1057EC00E07008BD08B5007CFFF7E8F820EAE0702F
:1057FC0008BD08B5007CFFF7F1F840EAE07008BD81
:10580C0008B5007CFFF7E2F840EAE07008BD007CC8
:10581C00FFF7ECB837B5457C04462DB1207C03B0BE
:10582C00BDE83040FFF7C2B8007C0191FFF7EEF8FD
:10583C0000280199F2DC284603B030BD10B51421C4
:10584C000446FEF724FC204610BD000010B54FF4B2
:10585C007A730446084611460022C4E90123044B1E
:10586C002360012320746374FFF7D8F8204610BD21
:10587C00745F0B0010B5836804460BB900F0FAF99D
:10588C00C3689847A3681BB103222146204698475A
:10589C0020461021BDE81040FEF7F9BB7047F8B563
:1058AC00064615460C468F18BC4206D0336814F8D1
:1058BC00011B9B6830469847F6E72846F8BD007CEC
:1058CC000022FFF7B3B8007C0021FFF7B7B8007CCB
:1058DC000021FFF7BBB8007C0021FFF7BFB8007CAC
:1058EC000021FFF7C3B810B514210446FEF7CFFB17
:1058FC00204610BD10B54FF47A73044608460021BB
:10590C00C4E90113034B236020741146FFF7BEF862
:10591C00204610BDA45F0B00002340681A461946B0
:10592C00FFF758B9024B05225A60024A1A607047B9
:10593C000CE70320CC5F0B00002340681A46FFF7EE
:10594C0021B9406800220221FFF72CB900224068DF
:10595C001146FFF71FB9002240681146FFF72AB91C
:10596C00002340681A461946FFF72CB900234068FB
:10597C001A461946FFF72EB940680021FFF752B9B5
:10598C0040680021FFF756B94068002281F0010100
:10599C00FFF728B940680022FFF734B900224068AD
:1059AC001146FFF737B9002240681146FFF722B9BC
:1059BC002DE9F04395B014460D460746FFF7FEFD62
:1059CC0000211C220DA8009100F06BF940230C93D0
:1059DC0020466B460CAA0021FEF790FF04460028D7
:1059EC004BD1024601216868FFF7E4F8022180469A
:1059FC0022466868FFF7DEF8009E81462146002E9D
:105A0C003BD0002939D17368022B03D00A2B11D05B
:105A1C00F669F4E7B8F1000FFAD0716906A8043101
:105A2C0007ADFFF7F9FD0FCD3C1D0FC42B6823709C
:105A3C004146EDE7B9F1000FEAD07469102201A8D4
:105A4C0000F02FF906238DF8143001AD04F1080392
:105A5C001834186859682A4603C20833A3421546FD
:105A6C00F7D101A906A807ADFFF7B6FD0FCD3C1D78
:105A7C000FC42B6823704946CAE70098FEF736FF1F
:105A8C00384615B0BDE8F083024B034A1A60002279
:105A9C005A60704714E7032008600B00372837B5AD
:105AAC00044602D9002003B030BD031F022B0BD9D2
:105ABC00012822D800F0B8F80021007CFEF7DEFFA8
:105ACC0080F00100C0B2EEE7114D2978BFF35B8F77
:105ADC0011F001010BD128460191FEF7DAFA019978
:105AEC0028B10C48FFF734F92846FEF7D7FA094BD2
:105AFC001878FEF7DBFF0028D4D1083C012C05D820
:105B0C0000F050F8007CFEF779FFD9E70120CAE7D6
:105B1C001CE7032020E70320372838B504460D4640
:105B2C000AD8FF2908D0FFF7B9FF28B1294620462B
:105B3C00BDE83840FEF7F2BE38BD38B504460D4618
:105B4C00FEF7F4FEFF2810D0062804D84D2323FAC4
:105B5C0000F0C30709D42046FFF7A0FF28B129465F
:105B6C002046BDE83840FEF7E9BE38BD704700005E
:105B7C0038B5044614252A46002100F092F82580F9
:105B8C004025074925812846258200F071F80449F3
:105B9C006060284600F06CF8E060204638BD00BF1D
:105BAC003C600B0030B50E4D2978BFF35B8F11F0C4
:105BBC00010487B011D12846FEF76BFA68B101A831
:105BCC00FFF7D6FF01AA21460648FFF73FFE2846FD
:105BDC00FEF764FA044800F050F8024807B030BDF4
:105BEC0028E703202CE70320795B0B0070470000AB
:105BFC0038B52025142304460360856005610649E9
:105C0C00284600F035F804496060284600F030F86A
:105C1C00E060204638BD00BF3C600B0010B5044668
:105C2C00FFF7E6FF204610BD30B50E4D2978BFF3C7
:105C3C005B8F11F0010487B011D12846FEF729FAC9
:105C4C0068B101A8FFF7EAFF01AA21460648FFF751
:105C5C0051FE2846FEF722FA044800F00EF80248DE
:105C6C0007B030BD44E7032048E70320F95B0B0085
:105C7C00FEF70BBA08B5FFF70DF8002301461A46DC
:105C8C00184600F06BB80A44914200F1FF3300D182
:105C9C00704710B511F8014B03F8014F9142F9D13F
:105CAC0010BD02440346934200D1704703F8011B18
:105CBC00F9E7000038B5104B1D68AB6B0446B3B95F
:105CCC001820FEF7D7FF0246A86320B90B4B0C48EF
:105CDC004221FEF7EFFF0B490B4BC0E900130B4BB6
:105CEC0083600B23838100210120C2E90401AB6B8B
:105CFC0000221C615A6138BDF8E503203D600B00A1
:105D0C0054600B000E33CDAB34126DE6ECDE0500A7
:105D1C00024B0146186800F003B800BFF8E50320F9
:105D2C0037B5044608460D4600F00FF8421C1146E4
:105D3C0020460192FEF7B6FF044618B1019A294697
:105D4C00FFF7A1FF204603B030BD034613F8012B2B
:105D5C00002AFBD1181A0138704700002DE9F843CE
:105D6C00DFF8B8800646D8F800001F460D4691466D
:105D7C0000F056F8254B1C6834B9254C1C60254B9B
:105D8C0013B11B68C4F8883063681F2B07DDD8F883
:105D9C00000000F047F84FF0FF30BDE8F8834EB339
:105DAC00D4F8880088B91C4B23B9D8F8000000F04F
:105DBC0038F8F0E74FF48470FEF75CFF0028F4D05D
:105DCC000023C0E94033C4F88800636840F823908E
:105DDC0001229A4000EB8301D0F800311343C0F844
:105DEC000031022EC1F8807002BFD0F80431134389
:105DFC00C0F804316368D8F800005A1C02336260A2
:105E0C0044F8235000F00EF80020C6E7E8E7032022
:105E1C005CE7032000000000814C0B005CE60320D3
:105E2C0070477047704700001D400B0059400B0035
:105E3C0081400B0085400B00000000004465766932
:105E4C00636520696E697469616C697A6564005078
:105E5C00544F31002C01000018000000F401000028
:105E6C002C010000500000000000000000000000A9
:105E7C003F4D0B00354D0B002B4D0B00214D0B00F6
:105E8C00154D0B00094D0B0085590B008D590B005E
:105E9C00FD4C0B00F54C0B00EB4C0B00E14C0B00DC
:105EAC00BD590B006170700025592D256D2D256491
:105EBC005425483A254D3A2553257A00617363746D
:105ECC00696D6500000000000000000025500B000B
:105EDC002B500B0069500B0039500B0027500B0056
:105EEC00000000000000000065550B0055550B002C
:105EFC0057550B0000000000000000004B560B0033
:105F0C00B3560B0089560B00154E0B007B560B003D
:105F1C004D560B005D560B00AD560B006D560B002D
:105F2C0045560B000000000000000000A3570B00BA
:105F3C0099570B008F570B0045570B0083570B00DD
:105F4C0077570B0085590B008D590B006B570B00C5
:105F5C0063570B0059570B004F570B00BD590B00E3
:105F6C000000000000000000DD570B0049580B003A
:105F7C0021580B00154E0B00F1570B000D580B0060
:105F8C00FF570B001B580B00DF570B00E3570B00A0
:105F9C000000000000000000A9580B00F3580B0093
:105FAC00CB580B00AB580B00D3580B00DB580B0035
:105FBC00E3580B00EB580B00000000000000000041
:105FCC0045590B004F590B0059590B0063590B00E5
:105FDC00A74E0B0025590B0085590B008D590B0052
:105FEC0095590B00A1590B00A9590B00B3590B0083
:105FFC00BD590B00000000000000000045590B00CB
:10600C004F590B0059590B0063590B006D590B007C
:10601C0079590B0085590B008D590B0095590B00C4
:10602C00A1590B00A9590B00B3590B00BD590B001A
:10603C00005245454E54206D616C6C6F6320737536
:10604C0063636565646564002F6D6E742F776F7282
:10605C006B73706163652F776F726B7370616365BF
:10606C002F4743432D31302D706970656C696E6517
:10607C002F6A656E6B696E732D4743432D31302D3E
:10608C00706970656C696E652D34385F32303230F2
:10609C00313132345F313630363138303634312F9D
:1060AC007372632F6E65776C69622F6E65776C699E
:1060BC00622F6C6962632F7374646C69622F7261F6
:1060CC006E642E6300000000D9430B00E9480B00FE
:1060DC00494D0B00714D0B00054E0B00B54E0B00DE
:1060EC00C54E0B00E14E0B00AD570B0031590B00A8
:0460FC00955A0B00A6
:04610000000000009B
:10610400C85E0B00FCE50320000000000000000056
:10611400000000000000000000000000000000007B
:10612400000000000000000000000000000000006B
:10613400000000000000000000000000000000005B
:10614400000000000000000000000000000000004B
:10615400000000000000000000000000000000003B
:0C6164000000000000000000ECE7032039
:10617000FFFFFFFF00000102030405060708090AEC
:106180000B0C0D0E0F101112131415161718191AE7
:086190001B1C1D1E1F2028002E
:0461980078563412EF
:04000003B000401CED
:00000001FF
